:020000040800F2
:1000000020660024B1020008C745000879420008B4
:10001000C5450008D5090008395700080000000050
:100020000000000000000000000000000D48000873
:10003000FD0B000800000000C94500080F4800083B
:10004000CB020008CB020008CB020008CB0200085C
:10005000CB020008CB020008CB020008CB0200084C
:10006000CB020008CB020008CB020008D909000827
:10007000CB020008CB020008CB020008CB0200082C
:10008000CB020008CB020008CB020008CB0200081C
:10009000CB020008CB020008CB020008CB0200080C
:1000A000CB020008CB020008CB020008CB020008FC
:1000B000CB020008CB020008CB020008CB020008EC
:1000C000CB020008CB020008CB020008CB020008DC
:1000D000CB020008CB020008CB020008CB020008CC
:1000E000CB020008CB02000800000000CB02000891
:1000F000CB020008CB020008CB020008CB020008AC
:10010000CB020008CB020008CB020008CB0200089B
:10011000CB020008CB020008CB020008CB0200088B
:10012000CB020008CB020008CB020008CB0200087B
:10013000CB020008CB020008CB020008CB0200086B
:1001400000000000000000000000000000000000AF
:10015000CB020008CB020008CB020008CB0200084B
:10016000CB020008CB020008CB020008CB0200083B
:10017000CB020008CB020008CB020008CB0200082B
:10018000CB020008CB020008CB020008CB0200081B
:10019000CB020008CB020008CB020008CB0200080B
:1001A000CB020008CB020008CB020008CB020008FB
:1001B000CB020008CB020008CB020008CB020008EB
:1001C000CB020008CB020008CB020008CB020008DB
:1001D000CB020008CB020008CB020008CB020008CB
:1001E000CB020008CB020008CB020008CB020008BB
:1001F000CB020008CB020008CB020008CB020008AB
:10020000CB020008CB020008CB020008CB0200089A
:10021000CB020008CB020008CB020008CB0200088A
:10022000CB020008CB020008CB020008000000004F
:10023000CB020008CB02000800000000CB0200083F
:10024000CB020008CB020008CB020008CB0200085A
:10025000CB020008CB020008CB020008CB0200084A
:10026000CB020008CB020008CB020008CB0200083A
:10027000CB020008CB020008CB02000800000000FF
:10028000CB020008CB020008CB02000800000000EF
:1002900000000000CB020008DFF810D000F06AFA7E
:1002A0000048004799820008AFF3008020660024D0
:1002B0000648804706480047FEE7FEE7FEE7FEE700
:1002C000FEE7FEE7FEE7FEE7FEE7FEE7F14800088F
:1002D000990200082DE9F05F0546002092469B46F2
:1002E00088460646814640241BE02846414647464C
:1002F000224600F076F853465A46C01A914110D370
:1003000011461846224600F05DF82D1A67EB0108E9
:100310004F4622460120002100F054F817EB000957
:100320004E41201EA4F10104DFDC484631462A4636
:100330004346BDE8F09F40EA01039B0703D009E074
:1003400008C9121F08C0042AFAD203E011F8013BC1
:1003500000F8013B521EF9D27047D2B201E000F81A
:10036000012B491EFBD270470022F6E710B5134659
:100370000A4604461946FFF7F0FF204610BD30B587
:1003800004460020034600E05B1C934203D2E05C7D
:10039000CD5C401BF8D030BD30B50B460146002087
:1003A0002022012409E021FA02F59D4205D303FA37
:1003B00002F5491B04FA02F52844151EA2F10102B8
:1003C000F1DC30BD202A04DB203A00FA02F10020E3
:1003D00070479140C2F1200320FA03F31943904083
:1003E0007047202A04DB203A21FA02F000217047EE
:1003F00021FA02F3D040C2F120029140084319468D
:1004000070472DE9FE4F804681EA0300C00F0C467D
:10041000009021F0004123F00045B8EB0200A94113
:1004200005D24046214690461C460B46024623F024
:100430000040104347D0270DC7F30A00C3F30A5109
:100440000290401A019040286BDAC3F3130040F485
:10045000801B0098924620B10023D2EB030A63EB85
:100460000B0B01985946C0F140025046FFF7AAFF16
:1004700006460D4650465946019A00F08DF910EB9C
:1004800008006141002487EA115284EAE7731A43A5
:1004900040D0009A62B3019A012A4FEA075215DC54
:1004A000001B61EB02014FF0004202EA0752CDE966
:1004B0000042001C41F5801132462B4600F08DF9B8
:1004C00003B0BDE8F08F40462146F9E7001B61EB21
:1004D0000201001C41F5801300185B412018A2F5B1
:1004E000001747EB030140EAD570B6196D4111E0E2
:1004F0006D084FEA360645EAC0754FEA0752001B01
:1005000061EB0201001C41F5801149084FEA3000FF
:100510000019514132462B4603B0BDE8F04F00F0C0
:100520004DB90098012240000023D0EB020263EB9A
:10053000E073009821464FEAE074B8EB000061EBED
:100540000401E9E783F000435BE781F0004158E7ED
:100550002DE9FE4F81EA030404F0004421F000413C
:1005600000944FF0000B23F0004350EA01045ED0EA
:1005700052EA03045BD0C3F30A54C1F30A552C4476
:10058000A4F2F3340194A0FB0254C1F3130141F42B
:100590008011C3F3130343F4801301FB024400FBF7
:1005A000034E840A970A44EA815447EA8357A4FB1E
:1005B000076802958D0A05FB07854FEA932C04FB1B
:1005C0000C542705029D4FEA065847EA1637B5EB4B
:1005D00008056EEB070C870E920E47EA811742EA78
:1005E0008312A7FB0201B6EB0B0164EB00042B0D99
:1005F00043EA0C335E1844EB1C50DA465146E7FBE5
:100600000201C5F313044FEA0B3343EA14534FEAD4
:100610000432019C43EA0603A4F10C040294009CFA
:10062000CDE900B400F0D9F803B0BDE8F08F0020A8
:100630000146F9E72DE9F04D81EA030404F0004B8F
:1006400021F0004514464FF0000A23F0004150EA23
:10065000050220D054EA01021DD0C5F30A57024614
:10066000C5F31303C1F31300C1F30A5640F4801518
:1006700043F48013A7EB0608101BD64608F2FD389A
:1006800073EB050002D308F1010801E092185B4109
:10069000B8F1000F03DA00200146BDE8F08D00201C
:1006A0004FF48011064684460EE0171B73EB0507D6
:1006B00005D3121B63EB050306434CEA010C490802
:1006C0004FEA300092185B4150EA0107EDD152EA3F
:1006D000030012D082EA040083EA0501084305D032
:1006E000101BAB4106D20122002306E000224FF08E
:1006F000004302E06FF0010253101AEB06004CEBCE
:10070000085110EB0A0041EB0B01BDE8F04D00F081
:1007100055B8C1F30A52C1F3130140F2FF3341F45B
:1007200080119A4202DA00200146704740F23343BA
:100730009A42A2F2334202DC5242FFF752BEFFF766
:1007400041BE000030B5041E71F1000404DB4FF01F
:100750000044404264EB0101141E73F1000405DB08
:100760001C464FF00043524263EB0403994208BF1A
:10077000904230BD064C074D06E0E06840F00103B2
:1007800094E8070098471034AC42F6D3FFF788FD91
:100790006C8A01088C8A0108202A06DBCB17203AD4
:1007A00041FA02F043EAE07306E041FA02F3D04076
:1007B000C2F12002914008431946704710B5141E3B
:1007C00073F1000408DA401C41F1000192185B410A
:1007D0001A4301D120F0010010BD2DE9F04D9246E1
:1007E0009B4611B1B1FA81F202E0B0FA80F22032F8
:1007F0009046FFF7E7FD04460F4640EA0A0041EA4B
:100800000B0153465A46084313D0114653EA0100E0
:1008100019D0C8F140025046FFF7E3FD05460E46E9
:10082000504659464246FFF7CDFD084305D001200A
:1008300004E020463946BDE8F08D0020054346EA35
:10084000E0762C4337430A986305E40AA0EB0800DE
:100850000022FD0A44EA47540A3002D5002001462E
:10086000E9E7010510196941DDE908450019694109
:10087000BDE8F04DA2E770B58C1810F8015B15F0DB
:10088000070301D110F8013B2A1106D110F8012B02
:1008900003E010F8016B01F8016B5B1EF9D12B0727
:1008A00005D40023521E0DD401F8013BFAE710F8DD
:1008B000013BCB1A921C03E013F8015B01F8015BCA
:1008C000521EF9D5A142D8D3002070BD70B53A4967
:1008D00005460068884202D0384A904202D1D1F8D9
:1008E000080302E03648D0F8080310F4403F11D066
:1008F00002F082FE04466868B0F5803F06D0B0F58D
:10090000003F03D0B0F5403F27D101E0000C18E0D4
:10091000A40822E000214FF4002001F005FF044666
:1009200068688103890B18D181140C2915D2DFE87E
:1009300001F0140606060606060B0D0F1113800CB7
:100940004000B4FBF0F408E0240906E0640904E088
:10095000A40902E0E40900E0240A01F0C3FB41F22B
:100960000301884208D8174884422868816813D850
:1009700021F48071816070BD13496008884204D8F9
:100980002868816821F44071F4E71049884206D84C
:100990002868816821F4407141F48071EAE70C49CC
:1009A00088422868816804D821F4407141F40071BC
:1009B000E0E741F44071DDE7002002400021024001
:1009C00000600258002D3101105E5F0020BCBE00A7
:1009D00040787D01FEE70000014800F017BD0000EF
:1009E000C4240024294A016891423AD0274A183287
:1009F000914236D0254A3032914232D0234A483291
:100A000091422ED0214A603291422AD01F4A783238
:100A1000914226D01D4A9032914222D01B4AA832E0
:100A200091421ED01A4A91421BD0194A1832914263
:100A300017D0174A3032914213D0154A48329142AA
:100A40000FD0134A603291420BD0114A7832914252
:100A500007D00F4A9032914203D00D4AA8329142FA
:100A600011D1CAB21823103AB2FBF3F26FF30901A5
:100A7000032A02F00703074AD25CC26500D9091DA8
:100A800081650846704721F0FF01F9E71000024038
:100A9000100402407489010830B5224A012301681C
:100AA0009142CAB21BD01F4C1434A14217D01D4C26
:100AB0002834A14213D01B4C3C34A1420FD0194C16
:100AC0005034A1420BD0174C6434A14207D0154CCE
:100AD0007834A14203D0134C8C34A1420CD11421A0
:100AE000114C083AB2FBF1F10F4A803201F01F05B8
:100AF00004EB8101AB4010E00C4D1824103A0D447A
:100B0000B2FBF4F1A82D00D80831094A01F01F0406
:100B100002EB8101064AA3408032603080E80E007B
:100B200030BD00000854025800580258F0FBFDBFC9
:100B30000008024010B50279531E072B2DD8174C20
:100B40000168A1421BD0154C1434A14217D0134C9C
:100B50002834A14213D0114C3C34A1420FD00F4C89
:100B60005034A1420BD00D4C6434A14207D00B4C41
:100B70007834A14203D0094C8C34A14203D10849F6
:100B8000074C443102E00749064C443104EB820231
:100B9000C0E91B2101219940416710BD085402584A
:100BA000FC580258FC08024010B583694FF0C0742D
:100BB000826A0146002053B1B3F5005F15D072B1CF
:100BC000012A0CD0022A0AD0032A09D104E01AB162
:100BD000012A06D0022A03D1C96AC90100D5012021
:100BE00010BDC96AA142FAD010BD002AF7D0012A6F
:100BF000F2D0022AF3D0032AF3D010BD704772B6A8
:100C0000FEE700002DE9F0470F4690F850109AB02B
:100C1000044601294FF0000915D00026DFF8F880BE
:100C2000012084F8500015961696216841450ED192
:100C30003A4D0095284603F028FB8246206803F0D1
:100C400024FB60B10EE002201AB0BDE8F087606DB1
:100C500084F8506040F0200060650120F4E7BAF1AC
:100C6000000F09D0616D4FF0010941F0200060656F
:100C7000484684F85060E7E720684146884201D042
:100C8000A84201D1264800E0264840F61F72D7F856
:100C900000C0254BBCF1000F23D0D0F808C0D7F816
:100CA00004802CF4404C4CEA080CC0F808C0D4F87E
:100CB00000C08C4501D0AC4507D18968AB6801F014
:100CC000010103F00103194302E0996801F00101F9
:100CD0000029CDD1BD6839688368294393431943FE
:100CE00017E0876827F44047876027688F4201D064
:100CF000AF4207D18968AB6801F0010103F001033D
:100D0000194302E0996801F001010029B0D181681E
:100D100091438160ACE700000020024000210240C6
:100D20000023024000630258006002582DE9F84F8A
:100D30004FF0000B0D46E54F0446CDF800B0D94604
:100D400090F85010DFF888A3012907D0012684F815
:100D50005060206803F095FA18B168E10220BDE800
:100D6000F88F286800280DDB21680303CA6927D0A3
:100D700090FAA0F0B0FA80F000F01F0006FA00F040
:100D80000243CA61D5E900124FF00C0C20681F2302
:100D9000C1F384610CEA921C02F01F02604493408C
:100DA0009140026B9A430A430263206803F069FA98
:100DB0008046206803F061FA58EA000003D07FE023
:100DC000C0F38460D8E72068AA68296803F061FA54
:100DD000C0480068B6EB107F06D121686869C96811
:100DE000C1F38201490008E02068C168C906C168F2
:100DF0006869F5D501F0100149088840296904297E
:100E00002ED023682A6803EB810102F0F8420B6EB2
:100E1000024303F0004010430866697E2268286997
:100E2000012917D05FF0000102EB8000026E22F072
:100E300000420A430266297E20682A6901290CD0F3
:100E40000021036902F01F02914023F4F0420A439B
:100E5000026135E04FF00041E6E74FF40061F0E752
:100E600020682978026E02F0F842B2EB816F03D15C
:100E7000016E21F00041016620682978426E02F07F
:100E8000F842B2EB816F03D1416E21F0004141661F
:100E900020682978826E02F0F842B2EB816F03D1AC
:100EA000816E21F00041816620682978C26E02F0CF
:100EB000F842B2EB816F03D1C16E21F00041C166EF
:100EC0002068816811F0010F76D150F8C02F95F895
:100ED0000CC0814B29680CF0180823FA08F3C1F301
:100EE000130C0B4022EA0C021A4302607B48E968AB
:100EF000814277D1286801031BD090FAA0F1B1FAA2
:100F000081F1491C01F01F0109294FEA003131D854
:100F1000002911D090FAA0F1B1FA81F101F101019B
:100F200001F01F0106FA01F609D100BFC0F3846188
:100F300009E0C0F38461E4E7C0F38461EEE790FA6E
:100F4000A0F1B1FA81F101F1010101F01F0146EABE
:100F5000816102D1C0F3846003E090FAA0F0B0FA9E
:100F600080F000F1010000F01F0000EB400041EABA
:100F7000005133E000290ED090FAA0F1B1FA81F1CE
:100F800001F1010101F01F0106FA01F606D100BFCF
:100F9000C0F3846106E0C0F38461F1E790FAA0F148
:100FA000B1FA81F101F1010101F01F0146EA81610D
:100FB00003D1C0F3846004E03FE090FAA0F0B0FAFF
:100FC00080F0474A00F1010000F01F0000EB4000F4
:100FD00002EB005041EA000141F00071AA6820686C
:100FE00003F057F92E68002E27DA3E4A20683E4962
:100FF000DFF8F8C0904201D0B84201D10B4600E0C2
:1010000063469B68904203F0E07301D0B84209D177
:101010009568D7F8088005F0010508F0010845EA51
:10102000080503E0DAF8085005F001054DB1616DDF
:101030004FF0010941F020006065484684F850B047
:101040008DE62B4DAE421CD11D021AD45045F4D171
:10105000904202D0B84200D061468A6843F4000052
:1010600022F0E07202438A60234922480968B1FBFA
:10107000F0F04000801C00E0401E00900028FBD1F2
:10108000DBE71E4DAE420CD1DD010AD45045D4D170
:10109000904202D0B84200D061468A6843F0807026
:1010A0000EE0174DAE42C8D15D02C6D45045C4D142
:1010B000904202D0B84200D061468A6843F4800072
:1010C00022F0E07202438A60B7E70000002102408C
:1010D000006002580010005CFFFF0F000000FF4797
:1010E000000020FE0020024000230240006302585E
:1010F000000084CB400D0300400E0024000052C7C6
:101100000000B8CFF8B54FF0000604003546009651
:1011100002D0606D10B107E00120F8BD204600F05C
:1011200005F9A66584F8506020688168C1F34071B4
:1011300019B18168704A1140816020688168C1F3EB
:10114000007181B981686D4A114041F08051816020
:101150006C496B480968B1FBF0F0401C00E0401E90
:1011600000900028FBD120688168C1F3007141B96B
:10117000616D012541F010016165A16D41F0010132
:10118000A16503F07EF8616DC90600D420B1606DE1
:10119000012540F0100093E0606D20F4807040F075
:1011A000020060652068816811F0010F1FD1564A66
:1011B000564B904201D0984207D191689E6801F049
:1011C000010106F00106314303E05149896801F04D
:1011D000010161B9904201D0984201D14D4800E02F
:1011E0004D488268616822F47C120A43826000F0F4
:1011F00079FF41F20301884202D9A06810280CD07F
:10120000617D227FA368206B490341EA02411843B4
:101210000843217F01290CD010E0607D227F216BE3
:10122000400340EA024241F01000104340F00C003D
:10123000EFE7218C394A02EB41410843616A29B149
:10124000A26A01F47871014342EA01002168344B3B
:10125000CA681A400243CA60206803F012F80646C2
:10126000206803F00AF830431DD1216844F20303DB
:10127000267DE26AC86842EA863298431043C86015
:1012800094F8380001281ED02068016921F001017E
:1012900001612068626B016921F0704111430161B5
:1012A0002046FFF713FBE068012820681CD0016B83
:1012B00021F00F010163606D20F0020040F0010099
:1012C00060652846F8BD2068A28F164FD4E9101C2F
:1012D000154E07EB0247A36C026941EA0C013B4340
:1012E000324019431143D3E7A269016B521E21F02A
:1012F0000F011143DEE70000C0FFFF5FC0FFFF7F6B
:10130000400D0300400E0024002002400021024056
:101310000060025800230240006302580000FEFFF4
:1013200003C0F0FF0100FFFF1EF800FC2DE9F041B3
:10133000B6B08046142130A8FFF716F8C0216846E1
:10134000FFF712F82C49D8F80000884251D1022149
:1013500019240420CDE90401CDE9020406A80026E1
:10136000C023354680E82A004FF400222996CDE9B3
:1013700000266846099601F03BFB08B1FFF73FFCE9
:101380001E48016841F020010160006800F0200063
:1013900035901A480830016841F001010160006889
:1013A00030AA032100F001003590802082E823005C
:1013B000134830A900F080FD13480921114C021593
:1013C000C31420608715C4E90115D001C4E9035294
:1013D00004F11401C4E90805D600204681E8C800DC
:1013E00000F088FB08B1FFF70AFCC8F84C40C4F8CD
:1013F000388036B0BDE8F08100200240D844025861
:1014000000000258C4240024100002402DE9FC5FB3
:101410000446F74E0020DFF8D88300904FF41652B0
:10142000F44808F11808A56DDFF8C493DFF8C0A3ED
:10143000016809F1300920680AF1480AB1FBF2F1AC
:10144000B04201912F68D5F800C0DFF8ACB335D0B9
:101450004146884232D0484530D050452ED058457C
:101460002CD0E5491831884228D0E34930318842F0
:1014700024D0E1494831884220D0E04988421DD03B
:10148000DE491831884219D0DC493031884215D004
:10149000DA494831884211D0DFF860E30EF1600E7E
:1014A00070450BD0D54A7832904207D0D34B903359
:1014B000984203D0D149A83188427DD194F85C206C
:1014C000082102F01F0201FA02F23A424AD0B04269
:1014D00032D0404530D048452ED050452CD05845CC
:1014E0002AD0C54A1832904226D0C34A30329042A0
:1014F00022D0C14A483290421ED0C04A90421BD0EE
:10150000BE4A1832904217D0BC4A3032904213D0B3
:10151000BA4A483290420FD0B84A603290420BD05B
:10152000B64A7832904207D0B44A9032904203D003
:10153000B24AA832904203D1026802F0040202E0EB
:10154000026802F008026AB1026822F00402026036
:1015500094F85C0000F01F008140A960606D40F0CD
:101560000100606594F85C00012100F01F008140DB
:10157000394240D02068B04234D0404532D048454E
:1015800030D050452ED058452CD09B4A183290422E
:1015900028D0994A3032904224D0974A483290421B
:1015A00020D0964A90421DD0944A1832904219D0C9
:1015B000924A3032904200E0AFE113D08F4A483275
:1015C00090420FD08D4A603290420BD08B4A7832D5
:1015D000904207D0894A9032904203D0874AA8327D
:1015E00090427DD1406910F0800F04D0A960606DF9
:1015F00040F00200606594F85C00042100F01F00D8
:10160000814039423ED02068B04232D0404530D08F
:1016100048452ED050452CD058452AD0764A18320D
:10162000904226D0744A3032904222D0724A4832D8
:1016300090421ED0714A90421BD0704A183290429C
:1016400017D06E4A3032904213D06C4A48329042E2
:101650000FD06A4A603290420BD0684A783290428A
:1016600007D0664A9032904203D0644AA832904232
:101670004ED1006810F0020F04D0A960606D40F0F8
:101680000400606594F85C00102100F01F008140A8
:10169000394258D02068B04234D0404532D0484515
:1016A00030D050452ED058452CD0534A1832904255
:1016B00028D0514A3032904224D04F4A483290428A
:1016C00020D04E4A90421DD04C4A1832904219D038
:1016D0004A4A3032904215D0484A4832904200E09F
:1016E00014E00FD0454A603290420BD0434A783222
:1016F000904207D0414A9032904203D03F4AA832EC
:10170000904207D1006800F0080006E0006872E728
:101710000068B7E7006800F00400A0B1A960206885
:101720000168490304D50068000308D5A16C07E0EF
:101730000168C90503D4016821F008010160216C2A
:1017400009B12046884794F85C00202100F01F0072
:101750008140394279D02068B04232D0404530D003
:1017600048452ED050452CD058452AD0224A183210
:10177000904226D0204A3032904222D01E4A48322F
:1017800090421ED01D4A90421BD01C4A18329042F3
:1017900017D01A4A3032904213D0184A4832904239
:1017A0000FD0164A603290420BD0144A78329042E1
:1017B00007D0124A9032904203D0104AA832904289
:1017C00003D1006800F0100002E0006800F00200A1
:1017D000B0B3A96094F835000428206801680FD0E0
:1017E00049037ED5006800032BD4616C2AE0000019
:1017F00010000240400E002470000240100402401D
:1018000021F0160101602068416921F080014161E9
:10181000206C08B9A06C20B12068016821F0080193
:10182000016094F85C303F21012003F01F03002287
:101830009940A96084F8350084F83420216D65E072
:1018400003E0E16B09B120468847606D00287DD038
:10185000606DC00759D02068042184F83510B0426B
:101860002BD0404529D0484527D0504525D0584554
:1018700023D09D49884220D09B49183188421CD0F2
:1018800099493031884218D09849884215D09749F3
:101890001831884211D09549303188420DD0934992
:1018A0004831884209D091496031884205D08F493A
:1018B0007831884201D08D499031016821F00101D1
:1018C000016020680099019A491C0091914202D858
:1018D0000168C907F6D10068C00710D003200FE0E7
:1018E000FFE70168C905ACD403680121002223F099
:1018F0001003036084F8351084F83420A1E7012038
:1019000084F83500002084F83400E16C00291DD0F3
:1019100002B02046BDE8F05F0847754988421DD0F7
:1019200073491431884219D071492831884215D041
:101930006F493C31884211D06D49503188420DD0F9
:101940006B496431884209D0694900E084E078310C
:10195000884203D066498C3188427DD194F85C80FE
:101960000427016808F01F0807FA08F717EA0C0FA8
:10197000009746D04F0744D500980F04686003D500
:10198000C8033CD4A16CC1E7880638D42068B042B3
:101990002DD055496039884229D0484527D0504537
:1019A00025D0584523D05049884220D04E4918317F
:1019B00088421CD04C493031884218D04B4988426B
:1019C00015D04A491831884211D0484930318842EF
:1019D0000DD046494831884209D0704507D0904221
:1019E00005D0984203D04149A831884203D101680B
:1019F00021F0080102E0016821F004010160216C7E
:101A000084E7022707FA08F717EA0C0F00974ED071
:101A10008F074CD500980F04686003D5C80344D4E1
:101A2000616C73E7880640D42068B0422FD02E49FD
:101A3000603988422BD0484529D0504527D0584599
:101A400025D02949884222D02749183188421ED002
:101A500025493031884200E044E018D023498842CB
:101A600015D022491831884211D02049303188429E
:101A70000DD01E494831884209D0704507D09042A8
:101A800005D0984203D01949A831884203D1016892
:101A900021F0140102E0016821F00A010160012136
:101AA00084F83510002084F83400E16B2EE708221A
:101AB00002FA08F212EA0C0F14D0090712D50168D5
:101AC00021F00E01016094F85C100120002201F069
:101AD0001F0100FA01F16960606584F8350084F83F
:101AE000342012E7BDE8FC9F880002401004024049
:101AF000085402582DE9F05F044600F0F9FA002C72
:101B000007467DD0E34E022120684FF00308DFF83E
:101B100088934FF00005DFF884A3B042DFF880B36C
:101B200034D0DC4A1832904230D048452ED050454F
:101B30002CD058452AD0DA4A1832904226D0D84ABA
:101B40003032904222D0D64A483290421ED0D54AF6
:101B500090421BD0D34A1832904217D0D14A30322B
:101B6000904213D0CF4A483290420FD0CD4A6032D3
:101B700090420BD0CB4A7832904207D0C94A90327B
:101B8000904203D0C74AA83290427DD184F83510E4
:101B9000B04284F834502ED0BE49183188422AD041
:101BA000484528D0504526D0584524D0BC49183146
:101BB000884220D0BA49303188421CD0B8494831D7
:101BC000884218D0B749884215D0B64918318842A2
:101BD00011D0B449303188420DD0B24948318842E1
:101BE00009D0B0496031884205D0AE497831884289
:101BF00001D0AC499031016821F00101016008E099
:101C000027E100BF00F074FAC01B052801D920218C
:101C10001CE120680068C007F4D104F108002168C5
:101C2000D4E9053C8E4685C809681043D4E90728E5
:101C30001F43636A38439C4F40EA0C00104339400D
:101C400040EA0800042B40EA010003D1D4E90B125A
:101C500011430843954909686FF30F01B1F1005F23
:101C60000FD36168A1F12902052A08D9163A032A7F
:101C700005D9083A012A02D94F39032901D840F47D
:101C80008010CEF8000000E023E02068676A406919
:101C9000042F20F0070047EA00070DD1D4E90A011C
:101CA000074349B12046FEF77FFF28B14020606519
:101CB000012184F83510CCE0206847612046FEF70A
:101CC00091FE94F85C203F2102F01F029140816058
:101CD00054E0774A90421BD0754B1433984217D08A
:101CE000734B2833984213D0714B3C3398420FD03A
:101CF0006F4B503398420BD06D4B6433984207D0F2
:101D00006B4B7833984203D0694B8C3398427DD12A
:101D100084F8351084F83450664B0168A26801EAF3
:101D2000030E402A73D0802A72D00022D4E90378AF
:101D3000D4E9053142EAD70242EAD8085C4AD4E93C
:101D4000077C48EAD30848EAD10141EAD701524268
:101D500041EA1C11142341EA0E010160206810447D
:101D6000B0FBF3F08000E0652046FEF73BFE94F800
:101D70005C20012102F01F02914041602068B042C6
:101D800057D044491831884253D0484551D0504526
:101D90004FD058454DD042491831884249D040492A
:101DA0003031884245D03E494831884241D03D4992
:101DB00088423ED03B49183188423AD039493031C7
:101DC000884236D037494831884232D0354960316F
:101DD00088422ED03349783188422AD03149903117
:101DE000884226D02F49A831884222D030498842E3
:101DF0001FD02F49143188421BD02D4928318842E9
:101E000017D02B493C31884213D002E01DE017E087
:101E100018E02749503188420BD025496431884267
:101E200007D023497831884203D021498C31884238
:101E300029D12046FEF730FEA06880280CD00CE0A7
:101E4000102273E74FF4804270E74021616584F807
:101E500035800120BDE8F09F6560216E2079086023
:101E6000D4E9190141606068401E072808D820465F
:101E7000FEF760FEE06E0560D4E91C01416002E0FF
:101E8000E566256765670120656584F835000020F3
:101E9000E0E700001000024040000240580002400D
:101EA00070000240100402403F8010FE0010005CF1
:101EB000085402580F00FEFF2DE9F84F03247D4D12
:101EC00000234FF001094FF0B04B4FF00F0AE9E04B
:101ED00009FA03F73A4076D00E7906F00306012E90
:101EE00001D0022E18D1D0F808C04FEA430ECE68B8
:101EF00004FA0EF82CEA080C06FA0EF646EA0C066E
:101F00008660D0F804C00E792CEA070CC6F30016E0
:101F10009E4046EA0C0646600E79F643B6070BD0A3
:101F2000C6684FEA43088F6804FA08FC26EA0C06E4
:101F300007FA08F73743C7600E7906F00306022E4A
:101F400012D1DE080F694FEA437C00EB8606B646E5
:101F5000366A4FEADC6C0AFA0CF807FA0CF726EA44
:101F600008063743CEF820700F7906684FEA430819
:101F700007F0030704FA08FC07FA08F726EA0C063C
:101F8000374307604E6816F4403F1CD04A4E37680E
:101F900047F00207376036689F0706F00206009692
:101FA00023F0030606F1B046B6463F0FD6F80864A4
:101FB000DFF808810AFA07FC404526EA0C0603D13F
:101FC0004FF0000C41E06CE0DFF8F4C0604502D156
:101FD0004FF0010C39E0DFF8ECC0604502D14FF062
:101FE000020C32E0DFF8E0C0604502D14FF0030C94
:101FF0002BE0DFF8D8C0604502D14FF0040C24E09C
:10200000DFF8CCC0604502D14FF0050C1DE0DFF8D1
:10201000C4C0604502D14FF0060C16E0DFF8B8C02E
:10202000604502D14FF0070C0FE0DFF8B0C060450B
:1020300002D14FF0080C08E0DFF8A4C0604502D1DF
:102040004FF0090C01E04FF00A0C0CFA07FC4CEAC7
:10205000060CCEF808C44F68DBF80060FF0226EAE1
:10206000020600D516435F46CBF80060D1F804C0E5
:10207000DBF804605FEA8C2C26EA020600D51643E2
:102080007E606E684F6826EA0206BF0300D51643DD
:102090006E602E684F6826EA0206FF0300D51643DD
:1020A0002E605B1C0A6832FA03F67FF411AFBDE8BC
:1020B000F88F000080000058F444025800000258D5
:1020C0000004025800080258000C02580010025880
:1020D0000014025800180258001C02580020025830
:1020E0000024025801480068000C70470010005C92
:1020F0000148806870470000340E0024024881685F
:102100000278114481607047340E0024032010B51A
:1021100000F0D4F801F0B6FA0F4A104914681368B9
:10212000C4F3032203F00F038A5CC95C02F01F02B0
:1021300001F01F01D0400A4A20FA01F1116009495B
:1021400008600F2000F010F808B1012010BD00F069
:1021500079F8002010BD000018440258A489010835
:10216000440E0024400E002470B50D4D044628781E
:10217000A0B14FF47A71B1FBF0F00A490968B1FBE4
:10218000F0F001F0DCFD48B9102C07D20022214606
:10219000501E00F073F800206C6070BD012070BD0F
:1021A000340E0024400E0024154BF0B5083B427855
:1021B00013491A600B680A1F23F001030B60436880
:1021C0001360057BC67A827A437B2D07847B45EAC0
:1021D0000665C77B90F809C0067A90F800E045EAEA
:1021E000C24040EA834040EA444040EA074040EAB7
:1021F0000C2040EA460040EA0E000860F0BD0000F6
:10220000A0ED00E0BFF35F8F044800210368034A9C
:1022100023F48033036070321160704724ED00E0D6
:10222000074A40F00100064970321060086840F427
:1022300080300860BFF34F8FBFF36F8F704700008F
:1022400024ED00E0054808B5016841F00201016095
:10225000006800F00200009008BD0000F44402583D
:10226000002809DB410900F01F028900012001F16B
:10227000E0219040C1F80001704700000E4BF0B41F
:102280001B680D46C3F30223C3F10706042E00D9D1
:102290000426191D072901D2002300E0DB1E0124BA
:1022A00004FA06F19C40491E2940641E99401440DE
:1022B0002143F0BC03F065BA0CED00E0064900F0E4
:1022C000070210B54FF6FF040868044B204040EAAF
:1022D00002201843086010BD0CED00E00000FA0574
:1022E000134970B50A68D243520705D5096801F051
:1022F0000701814213D118E00A6822F00702024365
:102300000A60FFF7F5FE0A4D4FF47A760446083D61
:1023100007E000BFFFF7ECFE001BB04201D901202F
:1023200070BD2868C0438004F4D4002070BD000054
:102330000C48025810B501F05FF905490968054AD3
:10234000C1F30211515C01F01F01C84010BD000033
:1023500020440258A48901084A4930B5494C0B1D54
:102360000A680C3409681D68246802F0030305F04C
:102370000102C1F30511C4F3CC04002914FB02F2DD
:1023800000EE102AF8EE400A76D0414A9FED3E1A40
:10239000DFED3E1AB7EE000A23B1012B5AD0022B13
:1023A00018D15CE0374C283C23689B0612D5394B8A
:1023B000246801EE901A1168C4F3C104F8EE612A92
:1023C000E34001EE903AC1F30801F8EE611A81EEA4
:1023D000A22A07E002EE101A1168F8EE422A81EEF6
:1023E000A22A45E001EE901A1168F8EE611A40EE5B
:1023F000811A71EE800A62EE200AC1F3462101EED5
:10240000101AB8EE411A31EE001AC0EE811ABCEE75
:10241000E11A80ED001A1168C1F3064101EE101AAD
:10242000B8EE411A31EE001AC0EE811ABCEEE11A84
:1024300080ED011A1168C1F3066101EE101AB8EEC1
:10244000411A31EE000A80EE801ABCEEC10A80ED1E
:10245000020A30BD01EE901ADFED0F2A03E001EE13
:10246000901ADFED0E2A1168F8EE611A82EEA12AA9
:10247000C1F30801B6E7FFE7002101604160816018
:1024800030BD000028440258000000390024744C7C
:10249000304402580090D0030024744A0024F44AC7
:1024A000494930B5484C0B1D0A68143409681D6849
:1024B000246802F00303C5F30012C1F30531C4F32D
:1024C000CC04002914FB02F200EE102AF8EE400AB8
:1024D00075D03F4A9FED3D1AB7EE000A6BB1DFEDB4
:1024E0003D1A012B01D0022B64D002EE101A1168A4
:1024F000F8EE422A81EEA22A21E0334C283C2368E0
:102500009B0612D5344B246801EE901A1168C4F36F
:10251000C104F8EE612AE34001EE903AC1F30801EC
:10252000F8EE611A81EEA22A0BE001EE901ADFEDBF
:102530002B2A00BFF8EE611A116882EEA12AC1F3BE
:10254000080101EE901A1168F8EE611A40EE811A46
:1025500071EE800A62EE200AC1F3462101EE101AE4
:10256000B8EE411A31EE001AC0EE811ABCEEE11A43
:1025700080ED001A1168C1F3064101EE101AB8EEA1
:10258000411A31EE001AC0EE811ABCEEE11A80ED5C
:10259000011A1168C1F3066101EE101AB8EE411A72
:1025A00031EE000A80EE801ABCEEC10A80ED020A0C
:1025B00030BD04E001EE901ADFED092ABAE70021F0
:1025C000016041608160F3E728440258000000394F
:1025D000384402580024744A0090D0030024744CFC
:1025E0000024F44A494930B5484C0B1D0A681C3494
:1025F00009681D68246802F00303C5F30022C1F3D3
:102600000551C4F3CC04002914FB02F200EE102A99
:10261000F8EE400A75D03F4A9FED3D1AB7EE000A2A
:102620006BB1DFED3D1A012B01D0022B64D002EE1D
:10263000101A1168F8EE422A81EEA22A21E0334CEA
:10264000283C23689B0612D5344B246801EE901A6F
:102650001168C4F3C104F8EE612AE34001EE903A38
:10266000C1F30801F8EE611A81EEA22A0BE001EE37
:10267000901ADFED2B2A00BFF8EE611A116882EE86
:10268000A12AC1F3080101EE901A1168F8EE611A4F
:1026900040EE811A71EE800A62EE200AC1F34621F3
:1026A00001EE101AB8EE411A31EE001AC0EE811A8E
:1026B000BCEEE11A80ED001A1168C1F3064101EE8B
:1026C000101AB8EE411A31EE001AC0EE811ABCEEB3
:1026D000E11A80ED011A1168C1F3066101EE101ACA
:1026E000B8EE411A31EE000A80EE801ABCEEC10A43
:1026F00080ED020A30BD04E001EE901ADFED092AF8
:10270000BAE70021016041608160F3E72844025884
:1027100000000039404402580024744A0090D0035D
:102720000024744C0024F44A2DE9F04FAD4A0546CC
:10273000DFF8ACA280F48070DFF8AC9289B013119E
:10274000AA4C0843AAF104064FF0805C4FF00058F1
:102750004FEAE2002CD085F400770F4357D0DFF822
:1027600080B285F480670F430BF1080B61D085F4CC
:1027700000670F4374D085F480570F436ED085F403
:1027800000570F434FF480394FF4003E67D085F473
:1027900000270F4371D085F480370F436ED085F446
:1027A00080460E436BD085F400420A4368D02AE08D
:1027B000DAF8001001F00701052924D2DFE801F062
:1027C00075BC7D25B10006A8FFF7C6FD079809B0C6
:1027D000BDE8F08F6846FFF763FE0098F7E703A8AF
:1027E000FFF700FF0398F2E72068C0F3C10022FA68
:1027F00000F0ECE72268D20571D561456FD118462B
:10280000E5E74145E3D00020E1E74846DFE7DAF8B5
:10281000001001F4E07180294FD004DC002944D07D
:102820004029F0D188E0C029EFD0B1F5807FEAD10E
:1028300077E0DBF8001001F46001B1F5800F3CD0C7
:1028400004DC91B3B1F5001FDDD175E0B1F5C00F27
:10285000DBD0B1F5000FD6D163E001E018E030E045
:10286000DBF8001001F0E061B1F1007F25D008DC59
:10287000D9B1B1F1807FC6D15EE049E06CE079E08A
:102880009CE0B1F1407FC0D0B1F1806FBBD148E096
:10289000DAF8001001F4E041B1F5005F0DD005DC7D
:1028A00019B1B1F5805FAED146E094E0B1F5405F7B
:1028B000ABD0B1F5804FA6D133E020688000A2D51F
:1028C0008DE7DAF8001001F4E021B1F5403F6CD05B
:1028D00006DC61B149457AD0714594D157E037E0C3
:1028E000B1F5802F65D0B1F5A02F8CD10CE000F0B0
:1028F000A5FE6CE76846FFF7D3FD019867E703A8DC
:10290000FFF770FE049862E721688903F1D47AE743
:10291000DBF8001011F440310ED0494510D071455C
:10292000F5D13168256801F040516D077FF562AF40
:1029300000297FF45FAF57E720680001E7D549E73A
:1029400020688000E3D503A8FFF74CFE05983EE71A
:1029500022689203DBD554E7306810F480303AD017
:102960004845D4D120680001D1D56846FFF798FDCD
:1029700002982CE7DBF8001001F0E041B1F1405F74
:1029800013D008DC71B1614521D04145BFD1206829
:102990008000B4D437E7B1F1804F0AD0B1F1A04F35
:1029A000B2D030E7FFF7C6FC11E720684007AED58C
:1029B0001AE72068C005AAD521E708E0DAF8001078
:1029C00011F04051A0D0614505D041459FD120680C
:1029D00000018FD417E72068800198D5F3E6000046
:1029E000504402580090D0030080BB0000440258BD
:1029F0002DE9FE4F0546DFF8E48350F8081B00245C
:102A0000F64FC943019005F12800264608F1240835
:102A1000009008011DD4A86E50B1B0F5801F0CD0F5
:102A2000B0F5001F0ED0B0F5401F1ED001240FE0FE
:102A3000386840F40030386017E00198022101F056
:102A4000C5FD03E00098022101F050FE04000CD007
:102A500026462888C043C00523D4A86D05281ED269
:102A6000DFE800F00C11161B1B00AA6ED8F800104E
:102A700021F440111143C8F80010EAE7386840F427
:102A80000030386009E00198002101F09FFD03E06B
:102A90000098002101F02AFE044674B100E00124F0
:102AA00026462888C043800528D4E86D80281ED09B
:102AB0000CDC90B140280ED114E0AA6DD8F80010BB
:102AC00021F007011143C8F80010EAE7C02813D02D
:102AD000B0F5807F10D001240FE0386840F400305A
:102AE000386009E00198002101F070FD03E00098D2
:102AF000002101F0FBFD04469CB126462888DFF842
:102B0000DC92C04309F12C0940052CD4D5F8A8006B
:102B1000B0F5800F20D00DDCA0B1B0F5001F0FD1B3
:102B200015E0EA6DD8F8001021F4E0711143C8F8FF
:102B30000010E3E7B0F5C00F13D0B0F5000F10D0D0
:102B400001240FE0386840F40030386009E0019853
:102B5000002101F03BFD03E00098002101F0C6FDDB
:102B600004467CB126462888C04300052DD4D5F8FC
:102B7000AC00B0F1007F21D00EDCA8B1B0F1807FB5
:102B800010D116E0D5F8A820D9F8001021F4600182
:102B90001143C9F80010E6E7B0F1407F13D0B0F15F
:102BA000806F10D001240FE0386840F400303860A6
:102BB00009E00198002101F009FD03E000980021DF
:102BC00001F094FD044674B126462868C043800194
:102BD0001FD4E86CD8B110280FD0202812D030288C
:102BE00015D0012414E0D5F8AC20D9F8001021F05C
:102BF000E0611143C9F80010E7E7386840F400309D
:102C0000386004E00198022101F0E0FC044674B150
:102C100026462888C043C0042BD4286EB0F5005F38
:102C200020D00DDCA0B1B0F5805F0FD115E06B486E
:102C3000EA6C2030016821F0300111430160E8E7BF
:102C4000B0F5405F13D0B0F5804F10D001240FE0F5
:102C5000386840F40030386009E00198002101F044
:102C6000B5FC03E00098002101F040FD04468CB162
:102C700026462888C043800429D4686EB0F5403FBA
:102C800023D010DC08B3B0F5803F14D0B0F5003F7E
:102C90000FD115E02A6ED8F8001021F4E04111435D
:102CA000C8F80010E5E7B0F5802F0ED0B0F5A02FE2
:102CB0000BD001240AE00198012101F087FC03E018
:102CC0000098012101F012FD044694B1264628889F
:102CD000C04340042AD4D5F8B000B0F1405F23D0FF
:102CE00010DC08B3B0F1805F14D0B0F1005F0FD1F9
:102CF00015E06A6ED8F8001021F4E0211143C8F8FD
:102D00000010E4E7B0F1804F0ED0B0F1A04F0BD02F
:102D100001240AE00198012101F058FC03E0009829
:102D2000012101F0E3FC044674B126462888C04323
:102D300000041FD4286FD8B1B0F1805F0ED0B0F17D
:102D4000005F10D0012414E0D5F8B020D9F80010AD
:102D500021F0E0411143C9F80010E7E7386840F47A
:102D60000030386004E00198012101F02FFC044696
:102D700074B126462868C043C0011ED4A86CD0B1E7
:102D800001280ED0022811D0032814D0012413E00A
:102D90002A6FD8F8001021F040511143C8F80010F4
:102DA000E8E7386840F40030386004E00198022118
:102DB00001F00CFC0446ACB126462868DFF81CB0D4
:102DC000C043ABF11C0B400252D40548016841F4EA
:102DD00080710160FFF78CF9824611E02C440258A3
:102DE00000480258FA48AA6C016821F00301114317
:102DF0000160E2E7FFF77CF9A0EB0A00642835D810
:102E0000F4480068C005F5D58CBBDFF8C4A3B5F85D
:102E1000B4100AF1240ADAF8000001F4407100F459
:102E20004070884211D0DAF80010DAF8002021F45E
:102E3000407142F48032CAF80020DAF8002022F40F
:102E40008032CAF80020CAF80010D5F8B400B0F5F6
:102E5000807F1AD1FFF74CF9029012E0FFF748F992
:102E60000299411A41F2883081420AD90324264648
:102E70002878DFF85CA3C0430AF1080AC00721D014
:102E80003CE0DAF800008007E8D5D5F8B410C1F3CB
:102E90000120032858460DD0016821F47C510160BF
:102EA000B5F8B420DAF80010C2F30B021143CAF8E7
:102EB0000010DDE7C84A036802EA111223F47C51CE
:102EC0001143ECE7E86F182816D005DCA0B10828FC
:102ED00008D0102804D10AE020280DD028280BD0D3
:102EE00001240AE00198012101F070FB03E0009841
:102EF000012101F0FBFB044664B126462878C0435B
:102F000080071ED4A86F062819D2DFE800F0160C3F
:102F100011161616EA6FDAF8001021F03801114385
:102F2000CAF80010EAE70198012101F04FFB03E025
:102F30000098012101F0DAFB04467CB100E0012495
:102F400026462878C04340071FD4D5F894000628A9
:102F500019D2DFE800F0160C11161616AA6FDAF86F
:102F6000001021F007011143CAF80010E9E70198A9
:102F7000012101F02BFB03E00098012101F0B6FBD9
:102F80000446A4B100E0012426462878C043800608
:102F90002BD4D5F89000B0F1405F24D011DC10B3F1
:102FA000B0F1805F15D0B0F1005F10D116E0D5F818
:102FB0009420D9F8001021F007011143C9F800103E
:102FC000E3E7B0F1804F0ED0B0F1A04F0BD0012459
:102FD0000AE00198002101F0F9FA03E000980221CB
:102FE00001F084FB044694B126462878C04340068D
:102FF0002BD4D5F89C00B0F5406F24D011DC10B371
:10300000B0F5806F15D0B0F5006F10D116E0D5F88F
:103010009020DAF8001021F0E0411143CAF80010C6
:10302000E3E7B0F5805F0ED0B0F5A05F0BD00124D0
:103030000AE00198002101F0C9FA03E0009802219A
:1030400001F054FB044694B126462878C04300069C
:103050002BD4D5F8A000B0F5C04F24D011DC10B3AC
:10306000B0F5005F15D0B0F5804F10D116E0D5F85F
:103070009C20D9F8001021F4E0511143C9F8001048
:10308000E3E7B0F5004F0ED0B0F5204F0BD0012490
:103090000AE00198002101F099FA03E0009802216A
:1030A00001F024FB044654B126462878C0430007AB
:1030B0001ED4D5F88400B0F5805F0AD00FE0D5F8B3
:1030C000A020D9F8001021F460411143C9F8001084
:1030D000EBE70098022101F009FB00B10126D5F8C9
:1030E0008420DAF8001021F440511143CAF800108E
:1030F0002878C043C00613D4D5F89800B0F5807F77
:1031000005D10098022101F0F1FA00B10126D5F8AD
:103110009820D9F8001021F440711143C9F800102B
:103120002868C043000316D4D5F8A40038B1B0F520
:10313000803F09D0B0F5003F0BD001240AE0019890
:10314000002101F043FA03E00098022101F0CEFAD9
:1031500004468CB126462868C043400322D4D5F8E3
:103160008800B0F5801F11D0B0F5001F13D0B0F566
:10317000401F15D0012414E0D5F8A420D9F8001080
:1031800021F440311143C9F80010E4E7386840F4F5
:103190000030386004E00098012101F0A7FA0446ED
:1031A0005CB126462868C043C00323D4286DA8B16B
:1031B000B0F5803F17D001241BE0D5F88820DAF85D
:1031C000001021F440111143CAF80010EAE7000092
:1031D0004C44025800480258CFFFFF00386840F4C2
:1031E0000030386004E00198022101F0EFF9044654
:1031F000E4B126462868C043800005D40098022127
:1032000001F074FA00B101262868C04380031BD482
:10321000D5F88000B0B1B0F5807F0FD0B0F5007F59
:1032200010D0B0F5407F0DD001240CE05A482A6D33
:10323000016821F4803111430160DBE7386840F414
:1032400000303860ECB326462868C043C00207D47B
:103250006A6FD8F8001021F000411143C8F800103F
:103260002868C043C00008D4D5F8B820DBF80010A7
:1032700021F480411143CBF800102868C04380023C
:1032800007D4EA6ED8F8001021F080711143C8F815
:1032900000102868C04340000CD4DBF8001021F473
:1032A0000041CBF80010DBF80010D5F8BC2011432A
:1032B000CBF800102868C04308D437486A6D01680D
:1032C00000E018E021F04051114301602868C0433C
:1032D000000208D4D5F88C20DAF8001021F440015F
:1032E0001143CAF8001028790024C04300F00100FF
:1032F00020430AD00FE0D5F88020DAF8001021F43E
:1033000040711143CAF800109EE70198002101F0B6
:103310005DF900B106462879C04300F00200204361
:1033200005D10198012101F051F900B10646287933
:10333000C04300F00400204305D10198022101F0B0
:1033400045F900B106462879C04300F00800204343
:1033500005D10098002101F0C9F900B1064628798D
:10336000C04300F01000204305D10098012101F076
:10337000BDF900B106462879C04300F0200004439F
:1033800004D10098022101F0B1F900B916B1012071
:10339000BDE8FE8F0020FBE74C4402582DE9F05FAA
:1033A00004000F467ED0DFF83882D8F8000000F025
:1033B0000F00B8420CD2D8F8001021F00F013943A9
:1033C000C8F80010D8F8000000F00F00B84269D12A
:1033D0002078844D40070AD52069296801F07001E2
:1033E000884204D9296821F07001014329602078BE
:1033F0007C4E361D00070AD56069316801F0700106
:10340000884204D9316821F070010143316020788D
:10341000C0060AD5A069316801F4E061884204D988
:10342000316821F4E061014331602078DFF8B4B104
:1034300080060BF1080B0CD5E1695846DBF800203B
:1034400002F07002914204D9026822F070020A432D
:103450000260207880070AD5E068296801F00F0132
:10346000884204D9296821F00F010143296020789E
:10347000C0073ED05B49A2682868183920F4706004
:10348000104328606068022818D0032819D0096802
:10349000012819D0490700294ADADFF848A1AAF122
:1034A000080A00E044E0DAF8002022F007020243B4
:1034B000CAF80020FEF71CFE814612E00968890365
:1034C000E9E709688901E6E7C905E4E7FEF710FEC8
:1034D000A0EB090141F28830814202D90320BDE806
:1034E000F09F6168DAF8000000F03800B0EBC10F1F
:1034F000ECD1207880070AD5E068296801F00F0137
:10350000884204D2296821F00F0101432960D8F8CC
:103510000010404601F00F01B9420BD9016821F0BB
:103520000F0139430160006800F00F00B84201D07C
:103530000120D4E7207840070AD52069296801F0E6
:103540007001884204D2296821F07001014329608A
:10355000207800070AD56069316801F0700188425F
:1035600004D2316821F07001014331602078C00637
:103570000AD5A069316801F4E061884204D231685B
:1035800021F4E06101433160207880060CD5E169C7
:103590005846DBF8002002F07002914204D2026823
:1035A00022F070020A43026000F06CF80E492A68AB
:1035B0002B68C2F3032203F00F038A5CC95C02F09C
:1035C0001F0201F01F01D040084A20FA01F11160EA
:1035D0000749086007480068BDE8F05FFEF7C4BD12
:1035E0000020005218440258A4890108440E002407
:1035F000400E0024380E002430B500F043F80B4A8A
:103600000B490C4B15681468C5F3032204F00F0432
:103610008A5C095D02F01F0201F01F01D040064ADA
:1036200020FA01F119601060084630BD18440258B4
:10363000A4890108440E0024400E002400B5FFF7C1
:10364000DBFF05490968054AC1F30211515C01F02D
:103650001F01C84000BD00001C440258A489010895
:1036600000B5FFF7C9FF05490968054AC1F3022102
:10367000515C01F01F01C84000BD00001C4402580D
:10368000A4890108454970B545480968434B103B7A
:1036900011F0380208D00111082A03D0102A0BD0EB
:1036A000182A0BD0084670BD19688906FBD5196821
:1036B000C1F3C101C84070BD3A4870BD3749374DAC
:1036C00018310C1D24350A68096826682D6802F037
:1036D000030406F00102C1F30511C5F3CC0515FB87
:1036E00002F200EE102AB8EE400AE9B32F4ADFEDED
:1036F0002E0AB7EE001A6CB1DFED2D1A012C01D0A5
:10370000022C43D002EE101A1068F8EE422A81EE25
:10371000A22A1EE01C68A40611D51B6801EE901AAF
:103720001168C3F3C103F8EE612AD84001EE900A94
:10373000C1F30800F8EE611A81EEA22A0BE001EE57
:10374000901ADFED1C2A00BFF8EE611A106882EEB5
:10375000A12AC0F3080001EE900AF8EE611A40EECB
:10376000201A31EE810A00E015E022EE000A10680E
:10377000C0F34620401C00EE900AF8EE600A80EE8E
:10378000201ABCEEC10A10EE100A70BD01EE901AAC
:10379000DFED092AD8E7002070BD00001044025870
:1037A0000090D00300127A00000000393044025823
:1037B0000024744A0024744C0024F44A2DE9F05F7C
:1037C00004007DD0FF4F2078FE4D1837DFF8F493CA
:1037D000103DC00748D0D9F80000396800F0380023
:1037E000102815D0182803D101F0030002280FD0AB
:1037F0006068B0F5803F12D010B1B0F5A02F18D09E
:10380000286820F480302860286820F4802009E0AF
:103810002868800328D560680028D2D024E0286872
:1038200040F480302860606888B1FEF761FC06468D
:1038300009E0286840F480202860F0E7FEF758FC93
:10384000801B64286FD828688003F7D50CE0FEF74A
:103850004FFC064605E000BFFEF74AFC801B6428CB
:10386000F0D828688003F7D4207841F20308D54EB9
:103870000C3E800769D5D9F80000396810F038008F
:103880000ED0182801D188070AD0E06890B32968C3
:1038900021F0190101432960FEF72AFC824631E03C
:1038A0002868400702D5E06800288AD0E1682868C7
:1038B00020F0190008432860FEF71AFC824607E052
:1038C000DFE000BFFEF714FCA0EB0A000228B9D825
:1038D00028684007F6D500BFFEF704FC40451BD81A
:1038E0002069402812D0316821F47C3141EA00304F
:1038F00030602AE018E000BFFEF7FAFBA0EB0A00F8
:1039000002289FD828684007F6D5E5E7306820F4FC
:103910007C3040F40030EBE7207C316821F0FE4140
:1039200041EA0060E4E70DE1286820F0010028602A
:10393000FEF7DEFB824605E0FEF7DAFBA0EB0A00AD
:1039400002288DD828684007F6D42078C0065DD5B7
:10395000D9F80000DFF86CB2396800F03800ABF13C
:10396000040B082810D0182803D101F00300012807
:103970000AD0E0690028286838D040F0800028602C
:10398000FEF7B6FB824623E02868C00523D5E06930
:10399000802876D11FE0206A202821D0316821F0CC
:1039A000F84141EA8060306030E000BF94F82010B8
:1039B000DBF8002022F07C5242EA0161CBF80010D3
:1039C00024E000BFFEF794FBA0EB0A00022898D881
:1039D0002868C005F6D5FEF785FB4045E6D8DAE74E
:1039E000306820F0F84040F08040DCE720F08000B4
:1039F0002860FEF77DFB064605E000BFFEF778FB7A
:103A0000801B02289DD82868C005F7D420780007BD
:103A100029D56C486169643000298046016811D05D
:103A200041F001010160FEF763FB064605E000BFBF
:103A3000FEF75EFB801B0228C9D8D8F8000080077B
:103A4000F6D510E021F001010160FEF751FB0646BA
:103A500005E000BFFEF74CFB801B022872D8D8F8A7
:103A600000008007F6D42078800623D5A0690028BE
:103A7000286810D040F480502860FEF739FB0646D5
:103A800005E036E1FEF734FB801B02285AD828688F
:103A90008004F7D50EE020F480502860FEF728FB64
:103AA000064604E0FEF724FB801B02284AD828685B
:103AB0008004F7D4207840074FD5DFF80C81D8F880
:103AC000001041F48071C8F80010FEF711FB0646A3
:103AD00005E000BFFEF70CFB801B642832D8D8F845
:103AE0000000C005F6D5374EA068603601280AD020
:103AF00008B1052813D0306820F00100306030682C
:103B000020F0040002E0306840F001003060A0685E
:103B100041F2883A90B1FEF7EBFA80460AE030684D
:103B200040F004003060EEE7FEF7E2FAA0EB080197
:103B3000514507D830688007F6D50EE0FEF7D8FA71
:103B4000804607E084E000BFFEF7D2FAA0EB080150
:103B500051457DD830688007F6D4606AB0B3DFF88D
:103B60006480D9F8001008F120084FF6F87B08F1BE
:103B70000409C1F3C2010329A8F1040A69D002288B
:103B8000286820F08070286003D0FEF7B1FA044660
:103B900084E0FEF7ADFA064605E000BFFEF7A8FA9E
:103BA000801B022877D828688001F7D4E26A40F2A7
:103BB000F331386854F8283F884340EA021018432C
:103BC000386004E01044025800480258B5E0217BF8
:103BD000434622894FF4FE0C208A4FF0FE474902EB
:103BE000267D521E401EA1F50071C2F308088AB25C
:103BF000761E0CEA004042EA08020243504607EAF9
:103C000006610A431A60DAF8002022F00102CAF8BD
:103C10000020D9F80020266A22EA0B0242EAC602F6
:103C2000C9F80020DAF80010A26921F00C01114354
:103C3000CAF800100168E26921F002011143016035
:103C4000016841F480310160016841F4003101E014
:103C500021E027E00160016841F4802101600168F2
:103C600041F001010160286840F080702860FEF793
:103C70003FFA044605E000BFFEF73AFA001B0228AF
:103C800009D828688001F7D557E000BFFEF730FA61
:103C9000001B022802D90320BDE8F09F286880019C
:103CA000F4D44AE039680128D8F8000021D0A26A8B
:103CB00001F0030393421CD1E26AC1F305118A4269
:103CC00017D1216BC0F30802491E8A4211D1616BE2
:103CD000C0F34622491E91420BD1A16BC0F30642AC
:103CE000491E914205D1E16BC0F30660491E814235
:103CF00001D00120D0E7A16C4E46D9F80000C0F3F6
:103D0000CC00814219D0DAF80000554620F00100BD
:103D1000CAF80000FEF7ECF94FEA0007FEF7E8F9F1
:103D2000B842FBD0A26C306820EA0B0040EAC20027
:103D30003060286840F0010028600020ACE7401E99
:103D4000B0F1807F10B501D3012010BD4FF0E02409
:103D500060610F21601701F014FD0020A0610721B0
:103D6000216110BDF0B590F83C20012A3BD01F4ED8
:103D7000012480F83C40022280F83D2002681C4D5E
:103D80005368B242D2F808C001D0AA4203D14F68AA
:103D900023F470033B430F6823F070031F43576005
:103DA0000268B24213D0B2F1804F10D0114B9A4248
:103DB0000DD0114B9A420AD0104B9A4207D0AA421A
:103DC00005D00F4B9A4202D00E4B9A4204D189681B
:103DD0002CF0800319439160002180F83D4080F869
:103DE0003C100846F0BD0220F0BD0000000001407C
:103DF000000401400004004000080040000C0040A6
:103E0000001800400040014010B5040003D094F8B1
:103E10003D0010B107E0012010BD002084F83C00F7
:103E2000204600F023F8022084F83D002068211D80
:103E300000F0CCFD012084F8480084F83E0084F8AE
:103E40003F0084F8400084F8410084F8420084F880
:103E5000430084F8440084F8450084F8460084F860
:103E6000470084F83D00002010BD000008B5006840
:103E70000649884208D10648016841F00201016004
:103E8000006800F00200009008BD0000000400403F
:103E9000E844025870B5044690F83C00002501281B
:103EA00014D03A4B012684F83C60022084F83D008F
:103EB00022689068184020F47F409060086870285D
:103EC0002FD010DC10F00F0F03D022E04FF00200D3
:103ED00070BD4FEA2012072A1BD2DFE802F05353CD
:103EE00053534B394100B0F1101F4BD009DCB0F5F2
:103EF000805F0FD0B0F5005F1ED0B0F5801F08D1F5
:103F000040E0A0F5801120393CD010293AD020297A
:103F100038D0012584F83D60002084F83C00284614
:103F200070BD4A682068D1E9021300F0B7FD20682F
:103F3000816841F0770109E04A682068D1E90213FD
:103F400000F0ACFD2068816841F480418160E1E7C8
:103F5000CA684968206800F0B5FD2068502106E075
:103F6000CA684968206800F0BEFD2068602100F042
:103F70009FFDCFE7CA684968206800F0A3FD20686C
:103F80004021F4E7226801461046F0E788FFCEFFA3
:103F900030B590F88410012918D0012280F88420CF
:103FA0002421C0F888100022202401680B680D68C5
:103FB00023F0005325F001050D60426601680B6097
:103FC000C0F8884080F88420104630BD022030BD03
:103FD000704770B5044690F8840001281DD0012276
:103FE00084F884202420C4F88800206805680268CA
:103FF00022F0010202602068826822F060620A43B7
:104000008260204600F082FD226820210020156099
:10401000C4F8881084F8840070BD022070BD70B5AB
:10402000044690F8840001281DD0012284F88420E1
:104030002420C4F8880020680568026822F0010284
:1040400002602068826822F060420A438260204653
:1040500000F05CFD2268202100201560C4F8881063
:1040600084F8840070BD022070BD704710B5040054
:1040700003D0D4F8880010B107E0012010BD002063
:1040800084F88400204600F027F82420C4F8880033
:104090002068016821F001010160A06A10B120468A
:1040A00000F056FD204601F09FF80128E6D0206878
:1040B000416821F4904141602068816821F02A0123
:1040C00081602068016841F0010101602046BDE87F
:1040D000104000F0A1BD000010B5B6B00446142198
:1040E00030A8FCF741F9C0216846FCF73DF91949B1
:1040F000206888422BD100201F9001210446CDE981
:1041000000106846FEF774FC08B1FCF778FD124811
:10411000016841F010010160006800F01000359066
:104120000D481038016841F001010160006830ABB2
:10413000022100F0010035904FF4C060072283E8AF
:104140001300064830A9CDE93342FDF7B5FE36B07D
:1041500010BD000000100140F04402580000025859
:1041600030B4D0F88C30202B02D0022030BC704705
:10417000A9B1A2B10B4D00240368C466AB420BD0B9
:104180005B681B0208D5046854E8003F43F0806375
:1041900044E80035002DF6D130BC01F0FBB9012018
:1041A000E4E70000000C005800680449884204D18C
:1041B000034901220348FFF7D3BF704700100140B5
:1041C000300E0024882500242DE9F8430446D0F859
:1041D0008800984616460D46202802D00220BDE8E9
:1041E000F883A5B19EB10021C4F890102120C4F835
:1041F00088001834FDF77CFF814654F8100CA68720
:10420000E6872027183CB0F5805F02D003E001204C
:10421000E5E7206910B12E46002510E000260EE0EB
:104220008021204601F03EFAC0B9DEB116F8010B3C
:1042300021688862B4F85600401EA4F85600B4F80D
:1042400056004B464FF00002CDF800800028E7D121
:104250004FF04001204601F025FA48B1C4F88870BB
:104260000320BCE735F8020B2168C0F30800E0E743
:10427000C4F888700020B2E7FEE78068C0F3C00091
:1042800070478068C0F3800070478068C0F380008A
:10429000704710B5042404EAD1540723C1F3045134
:1042A00020448B408A40416999431143416110BDCC
:1042B00070B58AB0002568461C21079508950995B8
:1042C000FCF752F8224C04262249012004F1240C68
:1042D000820221600323C4E9035625754FF49061DF
:1042E0006575A06125778CE82E00656384F83850E9
:1042F000E0632046FCF706FF08B1FCF780FC0821CC
:104300004FF48020C4E901011148FCF7FBFE08B11D
:10431000FCF775FC0E4807A90795FCF773FC08B17C
:10432000FCF76DFC0C48062140F2FF7203928DE809
:10433000230007486946CDE904658DF81950FCF75C
:10434000F5FC002801D0FCF75AFC0AB070BD000053
:1043500060240024002002408000501D094808B558
:10436000016841F00101016000680022114600F07F
:10437000010000900B20FDF781FFBDE808400B20F5
:10438000FDF76EBFD8440258094808B5016841F0EE
:1043900080010160016801F080010091016841F035
:1043A00001010160006800F00100009008BD0000FC
:1043B000E044025810B588B0174800241549EF2290
:1043C0000094019402940394049405940694C0E923
:1043D0000014C0E9024204618461FFF715FD08B1D1
:1043E000FCF70DFC4FF4805000900B486946FFF736
:1043F00051FD08B1FCF703FC20200490064804A9F5
:104400000694FFF7AFFC002801D0FCF7F8FB08B0DA
:1044100010BD0000000400403C2500241848002185
:1044200010B5164C0C224FF4E1330460C0E90131A1
:10443000C160C0E904128161C161016241628162AF
:10444000FFF714FE08B1FCF7DAFB0D480021FFF777
:10445000E6FD08B1FCF7D3FB09480021FFF7B9FDE1
:1044600008B1FCF7CCFB0648FFF792FD002803D00B
:10447000BDE81040FCF7C3BB10BD000000100140B8
:10448000882500240DA010B501F058F9134802F05A
:104490007DFC1249124808390A691268B0EBC21F44
:1044A00004D149690968B0EBC11F01D00DA000E03B
:1044B00017A0BDE8104001F041B900000D0A5445B5
:1044C0004D504C415445202D20696E697469616CD2
:1044D000697A6174696F6E0D0A000000100A002489
:1044E000002008415B41495D204572726F723A209D
:1044F0004D6F64656C206E6F7420696E20666C6F02
:104500006174333220666F726D6174210D0A000090
:104510005B41495D204D6F64656C20696E6974690B
:10452000616C697A6564207375636365737366751E
:104530006C6C792E0D0A00000FA010B501F0FEF88A
:10454000154CE06898B100BF02F046FB78B904F161
:104550000C0007C802F0D8FD012804D0E06802F082
:10456000A5FD0EA106E004F0BDF80028ECD00F4830
:104570000FA1006802F0F4FC54454D504C415445E5
:10458000202D2072756E202D206D61696E206C6F5C
:104590006F700D0A00000000080A002461695F6E58
:1045A0006574776F726B5F72756E000070890108B9
:1045B00050726F6365737320686173204641494C84
:1045C00045440000FEE7FEE7704700002DE9F04794
:1045D000454D044689464FF0000A2868C0438007CD
:1045E0000AD0414E283E306820F080603060FDF7F0
:1045F0007FFD0746B04608E00120BDE8F08700BF18
:10460000FDF776FDC01B022867D8D8F8000000012E
:10461000F6D4206829684FF4FE0721F47C313E026D
:1046200041EA00302860207AA389B4F804C040022F
:104630002D4D2D495B1E227CACF1010C1035091D5E
:10464000A0F5007080B2521ECCF3080C07EA0343B9
:1046500040EA0C00184306EA02621043286008682A
:10466000626920F0C000104308600A68A06922F067
:10467000200202430A60281D0A6822F010020A6024
:1046800002684FF6F873E4699A4342EAC402026092
:104690000868B9F1000F40F010020A6011D00868F4
:1046A000B9F1010F11D040F400100860D8F80000F3
:1046B000444640F08060C8F80000FDF719FD05464B
:1046C0000DE0086840F40020EFE740F48010ECE7CC
:1046D000FDF70EFD401B022801D903208DE720685D
:1046E0000001F5D5504688E7284402582DE9F047E7
:1046F000454D044689464FF0000A2868C0438007AC
:104700000AD0414E283E306820F080503060FDF7DE
:10471000EFFC0746B04608E00120BDE8F08700BF87
:10472000FDF7E6FCC01B022867D8D8F8000080001F
:10473000F6D4208829684FF4FE0721F07C713E02F0
:1047400041EA00502860207AA389B4F804C04002EE
:104750002D4D2D495B1E227CACF1010C1835091D35
:10476000A0F5007080B2521ECCF3080C07EA034398
:1047700040EA0C00184306EA026210432860086809
:10478000626920F44060104308600A68A06922F45E
:10479000007202430A60281D0A6822F480720A60CF
:1047A00002684FF6F873E4699A4342EAC402026071
:1047B0000868B9F1000F40F480720A6011D00868EF
:1047C000B9F1010F11D040F080700860D8F80000F6
:1047D000444640F08050C8F80000FDF789FC0546CB
:1047E0000DE0086840F48000EFE740F40000ECE7DB
:1047F000FDF77EFC401B022801D903208DE72068CD
:104800008000F5D5504688E7284402587047FDF7E8
:1048100075BC000030B59DB04C216846FBF7A4FD87
:10482000202113A8FBF7A0FD0220FDF759FD2D491B
:1048300000242D480A6822F001020A600A68026812
:1048400042F440420260026802F440421B92026855
:104850009204FCD5254A136843F0020313601268E2
:1048600002F002021B92026842F4404202600268B7
:104870000A6842F001020A60096801F001011B9117
:1048800001688904FCD5022000904025049501218F
:10489000039104220B923C23CDE90904CDE90C30AD
:1048A0000FAB0E900C2183E8130068461294FEF7BC
:1048B00085FF08B172B6FEE708221A95CDE91625E4
:1048C000D30113AA3F200321CDE9185382E8130036
:1048D000042113A8FEF762FD002801D072B6FEE79E
:1048E0001DB030BD2C04005818480258F44402583A
:1048F0002C48F0B52C4A016841F470010160106841
:1049000000F00F00072804D2106820F00F00C01D2F
:10491000106026490020254C10340B68244D43F0CC
:1049200001030B6020600B682B400B60136803F0E1
:104930000F03072B04D9136823F00F03DB1D13604B
:104940001A4C1C4A18341C4B261D371D2060174C6E
:104950001A4D28343060261D3860371D23603B1DFA
:1049600035601C1D3A60251D2E1D1860331D226008
:104970002860326018600A680C4B114C22F48022C7
:1049800060330A60186020686FF30F00B0F1005FB9
:1049900003D20C490120C1F8080143F2D2000A49B0
:1049A0000860F0BD88ED00E000200052004402588D
:1049B0007FEDF6EA80020101000202020000FF0121
:1049C0000010005C00800051004000522DE9F047CB
:1049D0002A4B4FF0804A2A4D02689842294E2A4FAE
:1049E0002A4C09D0504507D0A84205D0B04203D088
:1049F000B84201D0A04205D1D1F804C022F0700223
:104A00004CEA0202DFF888C0DFF888809842DFF8BD
:104A100088900FD050450DD0A8420BD0B04209D09D
:104A2000B84207D0A04205D0604503D0404501D030
:104A3000484503D1CD6822F440722A434D6922F0E3
:104A400080022A43026098428A68C2620A688262CF
:104A500007D0A04205D0604503D0404501D048456D
:104A600001D109690163012141610169C90703D0CD
:104A7000016921F001010161BDE8F08700000140FA
:104A80000004004000080040000C00400004014009
:104A900000400140004401400048014042EA032236
:104AA00083680A4323F47F410A4382607047000011
:104AB000034B82681A400A4342F007018160704745
:104AC0008FFFCFFF10B5036A046A23F00A0324F0B6
:104AD0000104046284690B4324F0F00141EA0211ED
:104AE0008161036210BD10B5036A046A23F0A0035C
:104AF00024F010040462846943EA011124F4704331
:104B000043EA02328261016210BD000030B5416E9D
:104B1000B9B101680D4B03F108048A688968C2F3D2
:104B20004262490F5D5C615C2D01B5FBF1F1A0F8BB
:104B30006A10995CA25C0901B1FBF2F1A0F868105F
:104B400030BD0121A0F86A10F8E70000948901083F
:104B500090F82810090706D50168836B4A6822F48B
:104B600000421A434A6090F82810C90706D001682D
:104B7000C36A4A6822F400321A434A6090F8281047
:104B8000890706D50168036B4A6822F480321A430C
:104B90004A6090F82810490706D50168436B4A68B7
:104BA00022F480221A434A6090F82810C90606D5DC
:104BB0000168C36B8A6822F480521A438A6090F8B5
:104BC0002810890606D50168036C8A6822F4005211
:104BD0001A438A6090F82810490611D50168436C81
:104BE0004A6822F480121A434A60416CB1F5801F72
:104BF00006D10168836C4A6822F4C0021A434A60F5
:104C000090F82810090606D50168C26C486820F49F
:104C100000201043486070472DE9F8430025044602
:104C2000C0F89050FDF764FA8046206820266FF0A7
:104C30007E470068000713D5002243463104204612
:104C4000009700F02FFD58B1216851E8000F20F0C7
:104C5000800041E80002002AF6D1C4F8886021E013
:104C600020680068400722D5002243464FF48001A7
:104C70002046009700F016FDC8B1206850E8001FDC
:104C800021F4907140E80012002AF6D12068083023
:104C900050E8001F21F0010140E80012002AF5D180
:104CA000C4F88C60032084F88450BDE8F883C4F80D
:104CB0008860C4F88C60E5662567002084F884501D
:104CC000F3E7000010B5026852E8001F21F490716C
:104CD00042E80013002BF6D10E4B0268083252E86E
:104CE000001F194042E80014002CF6D1C16E0129C2
:104CF00008D1026852E8001F21F0100142E80013B9
:104D0000002BF6D100212022C0F88C20C16641671B
:104D100010BD0000FEFFFFEF10B5D0F88C10B0F80A
:104D200060202229016804D0886940F00800886169
:104D300010BD496A836D11401980816D891C8165A0
:104D4000B0F85E10491EA0F85E10B0F85E100029A1
:104D5000EED1016851E8002F22F4907241E800235F
:104D6000002BF6D10168083151E8002F22F0010232
:104D700041E80023002BF5D1184B002102682024C4
:104D8000C0F88C40416701679A420BD0526812020A
:104D900008D5036853E8002F22F0806243E800241E
:104DA000002CF6D1C26E012A02D0FFF7FDF910BD2A
:104DB000C166026852E8001F21F0100142E80013AA
:104DC000002BF6D10168CA69D243D20601D4102261
:104DD0000A62B0F85C10FFF7FBF810BD000C005839
:104DE0002DE9F04704460068C569D0F800A0D0F866
:104DF0000880D4F88C10B4F86060222905D081694D
:104E000041F008018161BDE8F087B4F868704FF0A7
:104E1000000975E02068A16D406A30400880A06DEF
:104E2000801CA065B4F85E00401EA4F85E002068F7
:104E3000C569690730D0E9070AD05FEACA5107D5CA
:104E400001210162D4F8900040F00100C4F8900004
:104E5000A8070BD55FEAC87008D021680220086255
:104E6000D4F8900040F00400C4F8900068070BD517
:104E70005FEAC87008D0216804200862D4F8900066
:104E800040F00200C4F89000D4F8900020B1204611
:104E9000FFF7EBF8C4F89090B4F85E0080BB21688F
:104EA00051E8000F20F4807041E80002002AF6D19A
:104EB000304A2068083050E8001F114040E80013D5
:104EC000002BF6D12C4B202120684A46C4F88C10C8
:104ED000C4F87490C4F8709098420BD040680002F7
:104EE00008D5216851E8000F20F0806041E80003F8
:104EF000002BF6D1E06E012825D02046FFF754F9AB
:104F00000FB1A80686D4B4F85E0000283FF47BAF4A
:104F1000B4F8681081427FF676AF2068083050E818
:104F2000001F21F0805140E80012002AF5D11348FB
:104F30006067206850E8001F41F0200140E800123F
:104F4000002AF6D15FE7E266206850E8001F21F0F2
:104F5000100140E80012002AF6D12068C169C94357
:104F6000C90601D410210162B4F85C102046FFF795
:104F70002FF8C5E7FEFFFFEF000C0058194D0008A1
:104F800010B5D0F88C10B0F860202229016804D048
:104F9000886940F00800886110BD496A836D11403E
:104FA0001970816D491C8165B0F85E10491EA0F82A
:104FB0005E10B0F85E100029EED1026852E8001FC2
:104FC00021F4907142E80013002BF6D101680831FA
:104FD00051E8002F22F0010241E80023002BF5D117
:104FE000184B002102682024C0F88C4041670167FB
:104FF0009A420BD05268120208D5026852E8003F6C
:1050000023F0806342E80034002CF6D1C26E012AFE
:1050100002D0FFF7C9F810BDC166026852E8001F50
:1050200021F0100142E80013002BF6D10168CA6993
:10503000D243D20601D410220A62B0F85C10FEF707
:10504000C7FF10BD000C00582DE9F047044600686A
:10505000C569D0F800A0D0F80880D4F88C10B4F856
:105060006060222905D0816941F008018161BDE8B5
:10507000F087B4F868704FF0000975E02068A16D02
:10508000406A30400870A06D401CA065B4F85E0016
:10509000401EA4F85E002068C569690730D0E907A2
:1050A0000AD05FEACA5107D501210162D4F8900005
:1050B00040F00100C4F89000A8070BD55FEAC87063
:1050C00008D0216802200862D4F8900040F0040063
:1050D000C4F8900068070BD55FEAC87008D0216853
:1050E00004200862D4F8900040F00200C4F8900058
:1050F000D4F8900020B12046FEF7B7FFC4F8909096
:10510000B4F85E0080BB216851E8000F20F4807085
:1051100041E80002002AF6D1304A2068083050E801
:10512000001F114040E80013002BF6D12C4920232A
:1051300020684A46C4F88C30C4F87490C4F8709063
:1051400088420BD04068000208D5216851E8000F62
:1051500020F0806041E80003002BF6D1E06E0128CA
:1051600025D02046FFF720F80FB1A80686D4B4F862
:105170005E0000283FF47BAFB4F8681081427FF6F0
:1051800076AF2068083050E8001F21F0805140E8D9
:105190000012002AF5D113486067206850E8001F0C
:1051A00041F0200140E80012002AF6D15FE7E266F4
:1051B000206850E8001F21F0100140E80012002A8A
:1051C000F6D12068C169C943C90601D41021016222
:1051D000B4F85C102046FEF7FBFEC5E7FEFFFFEFCC
:1051E000000C0058814F00082DE9F0430446806808
:1051F000D84E87B0D84B2168D4E90427D4F81CC016
:1052000010430A68002547EA0C073843324002433E
:105210000A602068E268416821F44051114341600E
:105220002268A1699A4201D0206A01439768DFF899
:105230002CC3CB4ECB4807EA0C070F43976021687D
:10524000676ACA6A22F00F023A43CA622268B2420F
:105250000ED1006800F03800182873D047DCB8B3CE
:10526000082879D010286FD178E028287ED17BE0FB
:10527000BD498A4209D1006800F00700062875D2AE
:10528000DFE800F0546A6C6E7072B8498A4209D146
:10529000006800F00700062868D2DFE800F0475DEC
:1052A0005F616365B2498A4209D1006800F0070076
:1052B00006285BD2DFE800F03A5052545658AD4908
:1052C0008A420BD1006800F0070006284ED200E0A9
:1052D00010E0DFE800F02B4143454749A6498A42E8
:1052E0000AD1006800F03800182839D0B7DD20282E
:1052F000BBD13CE001203AE0A0498A4209D10068D4
:1053000000F00700062831D2DFE800F01026282A36
:105310002C2E9B498A420BD1006800F0070006281A
:1053200024D2DFE800F003191B1D1F2100201EE01E
:105330009A421BD18B48001D006800F00700062828
:1053400014D202E00CE007E010E0DFE800F0030513
:1053500007090B0D02200AE0042008E0082006E0FF
:10536000102004E0202002E0402000E08020854959
:10537000DFF814829A42854A4FF400434FEA21171E
:105380004FF000064ED110281AD006DC022809D0B2
:1053900004280BD008287CD10DE020283ED04028DE
:1053A00077D13DE0FCF7C6FF014610E06846FDF707
:1053B00077F801990BE003A8FDF714F9049906E0CA
:1053C0001068800605D51068C0F3C100C1400029EF
:1053D00070D0606A676838F8102007EB4703B1FBAC
:1053E000F2F0834255D8B0EB073F52D8002308466D
:1053F0001946FAF76FFF02467808130E120243EAC5
:10540000012110183A4671410023FAF763FF604A00
:10541000A0F5407191423CD821688FE03946D8E729
:105420001946D6E7D4F81CC04FF6EF799C4546D113
:10543000082819D005DC58B101280CD0042875D1F2
:105440000DE0102815D0202835D040286ED134E04A
:10545000FEF7F4F801E0FEF703F9014610E06846B4
:10546000FDF71EF801990BE003A8FDF7BBF80499BE
:1054700006E01068800604D51068C0F3C100C14082
:10548000C1B1636A606838F81330B1FBF3F14900C9
:1054900000E04BE001EB5001B1FBF0F0A0F1100196
:1054A000494543D84FF6F0732168C0F342021840D3
:1054B000104343E043E03946E3E71946E1E70828B3
:1054C00019D005DC58B101280CD004282ED10DE0EC
:1054D000102815D020282BD0402827D12AE0FEF70D
:1054E000ADF801E0FEF7BCF8014610E06846FCF7B5
:1054F000D7FF01990BE003A8FDF774F8049906E0C3
:105500001068800604D51068C0F3C100C140B1B175
:10551000636A606838F81330B1FBF3F101EB5001B6
:10552000B1FBF0F0A0F11001494505D9012506E0D5
:105530003946EDE71946EBE7216880B2C8600120E3
:10554000A4F86A00A4F8680028466667A66707B052
:10555000BDE8F083F369FFCF000C0058FFF4FF11A2
:1055600000100140544402580044004000480040EC
:10557000004C004000500040001401400078004002
:10558000007C00400090D0037C8901080044025850
:10559000FFFC0F0070B58368002481654FF48056CE
:1055A000A0F85C20B342A0F85E204FF0FF014467F2
:1055B00004D1036903BB40F2FF111DE04FF07F05EA
:1055C000C3B1B3F1805F1AD0A0F860402221C0F8C7
:1055D0009040C0F88C100168083151E8003F43F05A
:1055E000010341E80034002CF5D1416EB1F1005FB8
:1055F0000CD02FE0036933B9A0F86010E6E7016929
:1056000009B13F21F8E7A0F86050DFE7B0F8681073
:1056100091421FD88168B14201D10169B9B11D49D8
:105620000269416742B1026852E8001F41F480718B
:1056300042E80013002BF6D10168083151E8002F31
:1056400042F0805241E80023002BF5D120E01249BE
:105650004167F1E78168B14201D1016969B10F4940
:10566000026941675AB1016851E8002F42F4907213
:1056700041E80023002BF6D10AE00949416702689E
:1056800052E8001F41F0200142E80013002BF6D140
:10569000002070BD49500008E14D0008814F00080E
:1056A000194D00082DE9F047994617460D46044666
:1056B000089E4FF0000833E0701C31D0FCF718FD55
:1056C000A0EB0900B04218D8BEB1206801684907B4
:1056D00026D5802D24D0402D22D0C169C943090789
:1056E0000DD4082505622046FFF7ECFAC4F8905067
:1056F000012084F88480BDE8F0870320FBE7C069BF
:10570000C04300050CD421684FF4006008622046B5
:10571000FFF7D8FA2021C4F8901084F88480ECE7D1
:105720002068C06935EA000004D00020B842C3D028
:105730000020E0E70120F9E7FEE700000FB4054B89
:1057400010B503A9044A029800F0C2FE10BC5DF82F
:1057500014FB0000E9800008480E00244100080204
:1057600018BF04200A0E18BF40F001004FF07F421E
:1057700032EA010108BF40F00200012808BF0520FD
:105780007047090700284FEA116104DB00F1E020AF
:1057900080F80014704700F00F0000F1E02080F85E
:1057A000141D70479FED4B0A63E000BFD2ED003A35
:1057B00091ED004A92ED013AD1ED011A04EE230A6F
:1057C00092ED022AD1ED022A92ED031AD1ED030ADD
:1057D00092ED044A01EE830AD1ED043A92ED053AC6
:1057E000D1ED061A02EE820AD1ED052A92ED062AC3
:1057F00000EE810A92ED071AD1ED070A03EE840A42
:10580000D2ED083A91ED094A02EE830A91ED083A89
:10581000D2ED0A2A01EE820A91ED0A2AD2ED0B1A84
:1058200000EE810AD2ED090A91ED0B1A03EE230A6C
:10583000D2ED0C3A91ED0D3A04EE200A91ED0C4AAE
:10584000D1ED0E0A02EE220A92ED0D2AD2ED0E2AB9
:1058500001EE210A92ED0F1AD1ED0F1A40314032BC
:10586000103B04EE230A03EE020A00EEA20A01EE48
:10587000810A102B9AD21AE0D1ED000A92ED001A9B
:10588000D1ED011A92ED012A00EE810AD1ED020A52
:1058900092ED021A01EE820AD1ED031A92ED032A6B
:1058A000103110321B1F00EE810A01EE820A042B18
:1058B000E2D206E0F1EC010A5B1EB2EC011A00EE46
:1058C000810A002BF6D1D0ED000A30EE800A80ED7F
:1058D000000A70470000000010B510EE104A4FF0AB
:1058E00019406849002200EB44002DED028B8842EC
:1058F00057D8DFED650A14F0004F60EE200A14BFA0
:105900009FED621A9FED621A71EE200AFDEEE00A29
:1059100010EE900A00EE900AF8EEE00A9FED5D1A94
:1059200000EEC10A9FED5C1A00EEC10ADFED5B0AD2
:105930009FED5B1A00EE201ADFED5A0A40EE010AD5
:105940009FED591A594B00F0030100EE201A21EE89
:10595000000A7B4403EB8103D3ED000A544B7B44E4
:1059600003EB810393ED001A524B41EE000A7B4496
:1059700003EB8101801091ED000A70EE800AEABB12
:1059800000EE100AB8EEC01ADFED4B1A9FED4B0A7D
:10599000BDEC028B01EE210ABCEEC00A20EE200A0B
:1059A00010BD4FF0FF40A0431BD04FF0CE40B0EBF6
:1059B000440F82BF9FED420ABDEC028B10BD4148EF
:1059C000B0EB440F28BF012293D2022000F0A2F8CE
:1059D00014F0004F15D0BDEC028BBDE8104000F074
:1059E00081B814F5000F02BF9FED370ABDEC028BA2
:1059F00010BDBDEC028BBDE8104000E007E000F0F8
:105A000065B8BDEC028BBDE8104000F063B800EB58
:105A1000D07359104FF07E5202EBC15100EE101AB4
:105A2000A0EB630002EBC05060EE200A00EE100A0B
:105A300020EE208A18EE100A88B118EE100AB0F194
:105A4000FF4F15D018EE100AFFF788FE042808BF94
:105A500000F048F8B0EE480ABDEC028B10BD022001
:105A600000F058F8BDEC028BBDE8104000F03AB8E9
:105A7000022000F04FF8BDEC028BBDE8104000F0B2
:105A800029B800000000501E3BAAB840000000BF2B
:105A90000000003F0070313EF4FD053712BB2A3D87
:105AA00012BB2A3EFFFFFF3EFFFF7F3FD6300100C3
:105AB000DA300100AA3001000000004B00007E4EE9
:105AC0000000803F0000A0850000000030EE000ACA
:105AD000704700009FED020A20EE000A70470000A8
